:020000040800F2
:1000000000000120E1010008710B00087F0B0008CF
:10001000850B00088B0B0008910B00080000000006
:10002000000000000000000000000000A103000824
:10003000970B000800000000D103000839040008F5
:1000400031020008310200083102000831020008C4
:1000500031020008310200083102000831020008B4
:1000600031020008310200083102000831020008A4
:100070003102000831020008310200083102000894
:1000800031020008310200083102000800000000BF
:100090000000000000000000000000000D0B000840
:1000A0003102000831020008310200083102000864
:1000B000E50A0008A50A000831020008310200081C
:1000C0003102000831020008310200083102000844
:1000D000310200083102000831020008000000006F
:1000E000310200083102000831020008000000005F
:1000F00000000000000000000000000031020008C5
:10010000000000003102000831020008310200083E
:1001100000000000000000000000000000000000DF
:1001200031020008310200083102000831020008E3
:100130003102000800000000000000000000000084
:100140000000000000000000000000003102000874
:1001500031020008310200083102000831020008B3
:100160003102000831020008000000000000000019
:10017000000000000000000000000000000000007F
:100180000000000031020008000000000000000034
:040190003102000830
:1001A00010B5054C237833B9044B13B10448AFF3B1
:1001B00000800123237010BD00000020000000001B
:1001C0002C0C000808B5034B1BB103490348AFF3DF
:1001D000008008BD00000000040000202C0C000876
:1001E000DFF834D0002103E00C4B5B58435004315E
:1001F0000B480C4B42189A42F6D30B4A02E00023FC
:1002000042F8043B094B9A42F9D300F013F800F08E
:10021000E9FC00F03BFC7047000001204C0C00089A
:10022000000000200000002000000020D00000207E
:10023000FEE7000080B500AF164BD3F88830154AB2
:1002400043F47003C2F88830134B1B68124A43F022
:1002500001031360104B00229A600F4B1B680E4A7B
:1002600023F0847323F4803313600B4B0B4A5A60E2
:10027000094B1B68084A23F480231360064B0022B5
:10028000DA6000F00DF8034B4FF000629A6000BF97
:1002900080BD00BF00ED00E00038024010300024B7
:1002A00080B483B000AF00237B6000233B60364BFB
:1002B0001B68354A43F480331360334B1B6803F4E7
:1002C00000333B607B6801337B603B68002B03D1CC
:1002D0007B68B3F5A06FF0D12B4B1B6803F40033A0
:1002E000002B02D001233B6001E000233B603B6810
:1002F000012B42D1244B1B6C234A43F080531364DF
:10030000224B1B68214A43F4804313601E4B1E4A54
:100310009B6893601C4B9B681B4A43F400439360AB
:10032000194B9B68184A43F4A0539360164B184A24
:100330005A60154B1B68144A43F08073136000BF6A
:10034000114B1B6803F00073002BF9D0114B40F2E6
:1003500004621A600C4B9B680B4A23F00303936002
:10036000094B9B68084A43F00203936000BF064BA9
:100370009B6803F00C03082BF9D100BF0C37BD4676
:100380005DF8047B704700BF0038024000700040F9
:10039000194B4007003C0240000000000000000034
:1003A000074B19680868B0E8F04F80F30988BFF37D
:1003B0006F8F4FF0000080F311887047AFF300801B
:1003C0002400002000BF00BF00000000000000006B
:1003D000EFF30980BFF36F8F154B1A681EF0100FF3
:1003E00008BF20ED108A20E9F04F10602DE90900C8
:1003F0004FF0500080F31188BFF34F8FBFF36F8F22
:1004000000F018FA4FF0000080F3118809BC196859
:100410000868B0E8F04F1EF0100F08BFB0EC108A6B
:1004200080F30988BFF36F8F704700BFAFF3008080
:100430002400002000BF00BF80B582B000AF4FF0A5
:10044000500383F31188BFF36F8FBFF34F8F7B602F
:1004500000BF00F02FF90346002B03D0064B4FF0EE
:1004600080521A6000233B603B6883F3118800BF11
:1004700000BF0837BD4680BD04ED00E080B485B004
:1004800000AFEFF30583FB60FB680F2B14D9174A0D
:10049000FB6813441B78FB72154B1B78FA7A9A425F
:1004A0000AD24FF0500383F31188BFF36F8FBFF36D
:1004B0004F8F7B6000BFFEE70E4B1B6803F4E062CA
:1004C0000D4B1B689A420AD94FF0500383F31188F1
:1004D000BFF36F8FBFF34F8F3B6000BFFEE700BFDE
:1004E0001437BD465DF8047B704700BFF0E300E0C1
:1004F0001C0000200CED00E02000002080B485B03E
:1005000000AF786039607B685B68FB603B68FA68C5
:100510005A60FB689A683B689A60FB689B683A6817
:100520005A60FB683A689A603B687A681A617B682F
:100530001B685A1C7B681A6000BF1437BD465DF803
:10054000047B704780B485B000AF78607B681B691E
:10055000FB607B685B687A6892689A607B689B68DE
:100560007A6852685A60FB685B687A689A4203D17D
:100570007B689A68FB685A607B6800221A61FB6896
:100580001B685A1EFB681A60FB681B681846143704
:10059000BD465DF8047B704780B58EB000AF7860D3
:1005A00039607B683B633B6B002B0AD14FF05003F3
:1005B00083F31188BFF36F8FBFF34F8F3B6200BF90
:1005C000FEE73B6B1B6C002B0AD04FF0500383F30C
:1005D0001188BFF36F8FBFF34F8FFB6100BFFEE742
:1005E0003B6B1B68002B03D13B6B9B68002B01D13D
:1005F000012300E00023002B0AD14FF0500383F3C6
:100600001188BFF36F8FBFF34F8FBB6100BFFEE751
:10061000FFF734FFEFF311824FF0500383F311889B
:10062000BFF36F8FBFF34F8F7A613B617B69FB62D2
:100630003B6B9B6BBB623B6BDB6BBA6A9A422BD208
:100640003B6B93F8453087F82730BB6A5A1C3B6BED
:100650009A6397F92730B3F1FF3F12D13B6B5B6A86
:10066000002B16D03B6B2433184600F063F9034689
:10067000002B0ED03B68002B0BD03B6801221A6088
:1006800007E097F827300133DBB25AB23B6B83F8AF
:10069000452001237B6301E000237B63FB6AFB6051
:1006A000FB6883F3118800BF7B6B18463837BD4663
:1006B00080BD000080B586B000AF00237B61524B47
:1006C0001B68002B40F08E80504B1B6801333B6150
:1006D0004E4A3B6913603B69002B20D14C4B1B6891
:1006E0001B68002B0AD04FF0500383F31188BFF32F
:1006F0006F8FBFF34F8F3B6000BFFEE7444B1B681B
:10070000FB60444B1B68424A1360424AFB6813601B
:10071000414B1B680133404A136000F06DF93F4BB9
:100720001B683A699A4248D3394B1B681B68002BF7
:1007300004D13A4B4FF0FF321A603EE0344B1B6855
:10074000DB68DB68BB60BB685B687B603A697B68C1
:100750009A4203D2314A7B6813602EE0BB680433AF
:100760001846FFF7EFFEBB689B6A002B04D0BB68FE
:1007700018331846FFF7E6FEBB68DB6A01229A4091
:10078000274B1B681343264A1360BB68DA6A13467B
:100790009B0013449B00234A1A44BB680433194648
:1007A0001046FFF7ABFEBB68DA6A1F4B1B68DB6ABB
:1007B0009A42B9D301237B61B6E71B4B1B68DA6A07
:1007C000184913469B0013449B000B441B68012BE4
:1007D00001D901237B61154B1B68002B09D100F067
:1007E0005AF906E0114B1B680133104A136000F000
:1007F00052F90F4B1B68002B01D001237B617B69F1
:1008000018461837BD4680BDC0000020A800002053
:100810008C00002090000020B8000020BC000020C8
:10082000AC0000202800002024000020B0000020A0
:10083000B400002080B588B000AF394B1B68002B96
:1008400003D0384B01221A6066E0364B00221A6052
:10085000354B1B681B6BFB614FF0A533BB61FB691C
:100860001B68BA699A4211D1FB6904331B68BA69E3
:100870009A420BD1FB6908331B68BA699A4205D1C9
:10088000FB690C331B68BA699A4208D0264B1A6878
:10089000254B1B6834331946104600F059F9234B99
:1008A0001B68FB60FB68B3FA83F3FB72FB7AC3F14E
:1008B0001F037B611E497A6913469B0013449B000A
:1008C0000B441B68002B0AD14FF0500383F31188AF
:1008D000BFF36F8FBFF34F8F7B6000BFFEE77A6976
:1008E00013469B0013449B00114A13443B613B6930
:1008F0005B685A683B695A603B695A683B690833D0
:100900009A4204D13B695B685A683B695A603B690B
:100910005B68DB68044A136000BF2037BD4680BDBA
:10092000C0000020B400002024000020AC00002003
:100930002800002080B586B000AF78607B68DB6857
:10094000DB683B613B69002B0AD14FF0500383F316
:100950001188BFF36F8FBFF34F8FFB6000BFFEE7BF
:100960003B6918331846FFF7EDFD1D4B1B68002B44
:100970001CD13B6904331846FFF7E4FD3B69DB6A91
:1009800001229A40174B1B681343164A13603B69B8
:10099000DA6A13469B0013449B00134A1A443B69CE
:1009A000043319461046FFF7A9FD05E03B691833EB
:1009B00019460E48FFF7A2FD3B69DA6A0C4B1B682B
:1009C000DB6A9A4205D901237B610A4B01221A6036
:1009D00001E000237B617B6918461837BD4680BD66
:1009E000C0000020AC00002028000020940000205F
:1009F00024000020B400002080B483B000AF0C4B72
:100A00001B681B68002B04D10A4B4FF0FF321A60A1
:100A100008E0074B1B68DB68DB687B607B685B6812
:100A2000044A136000BF0C37BD465DF8047B704775
:100A30008C000020BC00002080B483B000AF786040
:100A4000044A7B68536100BF0C37BD465DF8047BE8
:100A5000704700BF003C014080B483B000AF034644
:100A6000FB71FB7903F01F02074997F907305B0917
:100A7000012000FA02F2403341F8232000BF0C3776
:100A8000BD465DF8047B704700E100E080B500AF33
:100A900000F088F8FEE780B400AF00BFBD465DF807
:100AA000047B704780B400AF0C4B1B6801330B4ACA
:100AB00013600A4B1A680A4B1B689A4203D9074B0A
:100AC0001B68074A1360054B1B68013B034A136010
:100AD00000BFBD465DF8047B704700BFC400002026
:100AE000C800002080B500AF074B1B680133064AE1
:100AF00013601D20FFF7B0FF034B1B68013B024A48
:100B0000136000BF80BD00BFC400002080B582B06C
:100B100000AF00237B604020FFF78EFF0A4B1B686D
:100B20003A1D11461846FFF737FD7B68002B07D0AA
:100B3000064B4FF080521A60BFF34F8FBFF36F8F99
:100B400000BF0837BD4680BDCC00002004ED00E0AA
:100B500080B485B000AF786039604FF0500383F304
:100B60001188BFF36F8FBFF34F8FFB6000BFFEE7AD
:100B700080B400AF00BFBD465DF8047B704780B411
:100B800000AFFEE780B400AFFEE780B400AFFEE741
:100B900080B400AFFEE780B400AF00BFBD465DF893
:100BA000047B704780B500AF00F002F800BF80BD45
:100BB00080B400AF0A480068006880F308884FF0EE
:100BC000000080F3148862B661B6BFF34F8FBFF3A5
:100BD0006F8F00DF00BF00BFBD465DF8047B70472C
:100BE00008ED00E070B50D4D0D4C641BA4100026FF
:100BF000A64209D10B4D0C4C00F018F8641BA41050
:100C00000026A64205D170BD55F8043B9847013631
:100C1000EEE755F8043B98470136F2E7440C00082C
:100C2000440C0008440C0008480C0008F8B500BF4C
:100C3000F8BC08BC9E467047F8B500BFF8BC08BCBD
:040C40009E46704715
:040C4400C5010008DE
:040C4800A1010008FE
:04000005080001E10D
:00000001FF
