:020000040800F2
:1000000000000120E1010008AB2C0008B92C000819
:10001000BF2C0008C52C0008CB2C000800000000F5
:100020000000000000000000000000005106000871
:10003000D12C000800000000A108000809090008F0
:1000400031020008310200083102000831020008C4
:1000500031020008310200083102000831020008B4
:1000600031020008310200083102000831020008A4
:100070003102000831020008310200083102000894
:1000800031020008310200083102000800000000BF
:100090000000000000000000000000001D2C00080F
:1000A0003102000831020008310200083102000864
:1000B000E52B0008A52B00083102000831020008DA
:1000C0003102000831020008310200083102000844
:1000D000310200083102000831020008000000006F
:1000E000310200083102000831020008000000005F
:1000F00000000000000000000000000031020008C5
:10010000000000003102000831020008310200083E
:1001100000000000000000000000000000000000DF
:1001200031020008310200083102000831020008E3
:100130003102000800000000000000000000000084
:100140000000000000000000000000003102000874
:1001500031020008310200083102000831020008B3
:100160003102000831020008000000000000000019
:10017000000000000000000000000000000000007F
:100180000000000031020008000000000000000034
:040190003102000830
:1001A00010B5054C237833B9044B13B10448AFF3B1
:1001B00000800123237010BD0C000020000000000F
:1001C000542D000808B5034B1BB103490348AFF396
:1001D000008008BD0000000010000020542D000821
:1001E000DFF834D0002103E00C4B5B58435004315E
:1001F0000B480C4B42189A42F6D30B4A02E00023FC
:1002000042F8043B094B9A42F9D300F013F802F08C
:1002100067FD02F0A9FC704700000120942D000842
:10022000000000200C0000200C000020D451002011
:10023000FEE7000080B500AF164BD3F88830154AB2
:1002400043F47003C2F88830134B1B68124A43F022
:1002500001031360104B00229A600F4B1B680E4A7B
:1002600023F0847323F4803313600B4B0B4A5A60E2
:10027000094B1B68084A23F480231360064B0022B5
:10028000DA6000F00DF8034B4FF000629A6000BF97
:1002900080BD00BF00ED00E00038024010300024B7
:1002A00080B483B000AF00237B6000233B60364BFB
:1002B0001B68354A43F480331360334B1B6803F4E7
:1002C00000333B607B6801337B603B68002B03D1CC
:1002D0007B68B3F5A06FF0D12B4B1B6803F40033A0
:1002E000002B02D001233B6001E000233B603B6810
:1002F000012B42D1244B1B6C234A43F080531364DF
:10030000224B1B68214A43F4804313601E4B1E4A54
:100310009B6893601C4B9B681B4A43F400439360AB
:10032000194B9B68184A43F4A0539360164B184A24
:100330005A60154B1B68144A43F08073136000BF6A
:10034000114B1B6803F00073002BF9D0114B40F2E6
:1003500004621A600C4B9B680B4A23F00303936002
:10036000094B9B68084A43F00203936000BF064BA9
:100370009B6803F00C03082BF9D100BF0C37BD4676
:100380005DF8047B704700BF0038024000700040F9
:10039000194B4007003C024080B588B000AF786040
:1003A00000237B6101F03AFB404B1B68002B04D11A
:1003B00000F0BEF83D4B01221A607B68002B0ED086
:1003C00008231A467B6813447B607B6803F00703AD
:1003D000002B04D07B6823F0070308337B607B6825
:1003E000002B57D07B6844F6F772934252D8304BBB
:1003F000BB612F4B1B68FB6104E0FB69BB61FB69C0
:100400001B68FB61FB695B687A689A4203D9FB69E8
:100410001B68002BF1D1FB69264A93423AD0BB6995
:100420001B68082213447B61FB691A68BB691A6068
:10043000FB695A687B68D31A08225200934222D97A
:10044000FA697B681344FB60FB695A687B68D21ABF
:10045000FB685A60FB697A685A60FB685B68BB603E
:10046000134B3B6102E03B691B683B613B691B68C6
:100470005B68BA689A42F6D83B691A68FB681A60EA
:100480003B69FA681A600C4B1A68FB695B68D31AFF
:10049000094A136001F0D0FA7B69002B01D102F008
:1004A000DFFB7B6918462037BD4680BD38500020F1
:1004B00028500020305000200400002080B586B075
:1004C00000AF78607B683B617B68002B27D00823F6
:1004D0005B423A6913443B613B69FB6001F09EFA61
:1004E000FB685B68BB60104B7B6102E07B691B684B
:1004F0007B617B691B685B68BA689A42F6D87B6946
:100500001A68FB681A607B69FA681A60FB685A68A7
:10051000064B1B681344054A136001F08DFA00BFB7
:100520001837BD4680BD00BF2850002004000020C1
:1005300080B483B000AF104B23F007037B600F4AF9
:100540007B6813600D4B00225A600D4B44F6F87225
:100550005A600B4B00221A607B683B603B6844F694
:10056000F8725A603B68064A1A6000BF0C37BD46F5
:100570005DF8047B704700BF300000202850002049
:100580003050002080B485B000AFF860B9607A6068
:10059000FB68043BFB60FB684FF080721A60FB68ED
:1005A000043BFB60BB6823F00102FB681A60FB6838
:1005B000043BFB600C4AFB681A60FB68143BFB6061
:1005C0007A68FB681A60FB68043BFB60FB686FF0AD
:1005D00002021A60FB68203BFB60FB681846143778
:1005E000BD465DF8047B7047ED05000880B485B01A
:1005F00000AF00237B60124B1B68B3F1FF3F0AD0B2
:100600004FF0500383F31188BFF36F8FBFF34F8F09
:10061000FB6000BFFEE74FF0500383F31188BFF388
:100620006F8FBFF34F8FBB6000BF00BF7B68002B95
:10063000FCD000BF00BF1437BD465DF8047B704797
:100640000800002000000000000000000000000082
:10065000074B19680868B0E8F04F80F30988BFF3CA
:100660006F8F4FF0000080F311887047AFF3008068
:100670004450002000BF00BF08480068006880F3B5
:1006800008884FF0000080F3148862B661B6BFF3AB
:100690004F8FBFF36F8F00DF00BF00BF08ED00E09A
:1006A00080B586B000AF464B1B68464A93420AD1DC
:1006B0004FF0500383F31188BFF36F8FBFF34F8F59
:1006C0003B6100BFFEE73E4B1B683F4A93420AD1A5
:1006D0004FF0500383F31188BFF36F8FBFF34F8F39
:1006E000FB6000BFFEE7394B7B617B691B78DBB2A7
:1006F0007B607B69FF221A707B691B78DBB2FB7021
:10070000FB78DBB203F05003DAB2314B1A70314B95
:1007100007221A6009E02F4B1B68013B2D4A13602A
:10072000FB78DBB25B00DBB2FB70FB78DBB203F083
:100730008003802BEFD0274B1B68C3F10703042BEA
:100740000AD04FF0500383F31188BFF36F8FBFF3CC
:100750004F8FBB6000BFFEE71E4B1B681B021D4A8C
:1007600013601C4B1B6803F4E0631A4A13607B6838
:10077000DAB27B691A70184B1B68174A43F470038E
:100780001360154B1B68144A43F07043136000F06C
:10079000DDF8124B00221A6000F0FCF8104B1B68C9
:1007A0000F4A43F040431360FFF766FF01F0B0FAD1
:1007B000FFF71CFF002318461837BD4680BD00BF59
:1007C00000ED00E071C20F4170C20F4100E400E093
:1007D0003C5000204050002020ED00E008000020A8
:1007E00034EF00E080B483B000AF4FF0500383F3E8
:1007F0001188BFF36F8FBFF34F8F7B6000BF0F4B2C
:100800001B6801330D4A13600C4B1B68012B0FD181
:100810000B4B1B68DBB2002B0AD04FF0500383F365
:100820001188BFF36F8FBFF34F8F3B6000BFFEE7B0
:1008300000BF0C37BD465DF8047B70470800002000
:1008400004ED00E080B483B000AF124B1B68002BB6
:100850000AD14FF0500383F31188BFF36F8FBFF3BA
:100860004F8F7B6000BFFEE70A4B1B68013B094AC4
:100870001360084B1B68002B05D100233B603B68CD
:1008800083F3118800BF00BF0C37BD465DF8047BC1
:10089000704700BF080000200000000000000000BA
:1008A000EFF30980BFF36F8F154B1A681EF0100F1E
:1008B00008BF20ED108A20E9F04F10602DE90900F3
:1008C0004FF0500080F31188BFF34F8FBFF36F8F4D
:1008D00001F01EFA4FF0000080F3118809BC19687E
:1008E0000868B0E8F04F1EF0100F08BFB0EC108A97
:1008F00080F30988BFF36F8F704700BFAFF30080AC
:100900004450002000BF00BF80B582B000AF4FF060
:10091000500383F31188BFF36F8FBFF34F8F7B605A
:1009200000BF01F035F90346002B03D0064B4FF012
:1009300080521A6000233B603B6883F3118800BF3C
:1009400000BF0837BD4680BD04ED00E080B400AFB5
:100950000B4B00221A600B4B00221A600A4B1B68DB
:100960000A4AA2FB03239B09094A013B1360044B7B
:1009700007221A6000BFBD465DF8047B704700BFC8
:1009800010E000E018E000E000000020D34D62100D
:1009900014E000E0DFF80C00016841F47001016030
:1009A000704700BF88ED00E080B485B000AFEFF382
:1009B0000583FB60FB680F2B14D9174AFB681344AF
:1009C0001B78FB72154B1B78FA7A9A420AD24FF0C9
:1009D000500383F31188BFF36F8FBFF34F8F7B609A
:1009E00000BFFEE70E4B1B6803F4E0620D4B1B6873
:1009F0009A420AD94FF0500383F31188BFF36F8FE7
:100A0000BFF34F8F3B6000BFFEE700BF1437BD460A
:100A10005DF8047B704700BFF0E300E03C5000202D
:100A20000CED00E04050002080B483B000AF78604F
:100A30007B6803F108027B685A607B684FF0FF32E5
:100A40009A607B6803F108027B68DA607B6803F1D7
:100A500008027B681A617B6800221A6000BF0C37AD
:100A6000BD465DF8047B704780B483B000AF78600A
:100A70007B6800221A6100BF0C37BD465DF8047B1D
:100A8000704780B485B000AF786039607B685B6880
:100A9000FB603B68FA685A60FB689A683B689A603A
:100AA000FB689B683A685A60FB683A689A603B68E2
:100AB0007A681A617B681B685A1C7B681A6000BFE1
:100AC0001437BD465DF8047B704780B485B000AF35
:100AD000786039603B681B68BB60BB68B3F1FF3F5F
:100AE00003D17B681B69FB600CE07B680833FB600B
:100AF00002E0FB685B68FB60FB685B681B68BA68C8
:100B00009A42F6D2FB685A683B685A603B685B6859
:100B10003A689A603B68FA689A60FB683A685A607B
:100B20003B687A681A617B681B685A1C7B681A608C
:100B300000BF1437BD465DF8047B704780B485B0B4
:100B400000AF78607B681B69FB607B685B687A68D4
:100B500092689A607B689B687A6852685A60FB6802
:100B60005B687A689A4203D17B689A68FB685A602E
:100B70007B6800221A61FB681B685A1EFB681A60BA
:100B8000FB681B6818461437BD465DF8047B704748
:100B900080B584B000AF786039607B68FB60FB682B
:100BA000002B0AD14FF0500383F31188BFF36F8FEE
:100BB000BFF34F8FBB6000BFFEE7FFF713FEFB687C
:100BC0001A68FB68DB6BF968096C01FB03F31A44D4
:100BD000FB689A60FB6800229A63FB681A68FB68EE
:100BE0005A60FB681A68FB68DB6B013BF968096CAB
:100BF00001FB03F31A44FB68DA60FB68FF2283F809
:100C00004420FB68FF2283F845203B68002B14D169
:100C1000FB681B69002B1AD0FB681033184601F0E3
:100C200047F90346002B12D00C4B4FF080521A604C
:100C3000BFF34F8FBFF36F8F09E0FB681033184687
:100C4000FFF7F2FEFB6824331846FFF7EDFEFFF7CF
:100C5000F9FD012318461037BD4680BD04ED00E0C4
:100C600080B58AB002AFF860B9601346FB71FB68CB
:100C7000002B0AD14FF0500383F31188BFF36F8F1D
:100C8000BFF34F8F3B6100BFFEE7BB68002B02D173
:100C90000023FB6104E0FB68BA6802FB03F3FB611D
:100CA000FB6950331846FFF777FBB861BB69002B2F
:100CB0000DD0BB697B617B6950337B61FA79BB697D
:100CC000009313467A69B968F86800F005F8BB69C3
:100CD00018462037BD4680BD80B584B000AFF860AF
:100CE000B9607A60FB70BB68002B03D1BB69BA693D
:100CF0001A6002E0BB697A681A60BB69FA68DA6355
:100D0000BB69BA681A640121B869FFF741FFBB6982
:100D1000FA7883F84C2000BF1037BD4680BD000034
:100D200080B58EB000AFF860B9607A603B60002398
:100D30007B63FB683B633B6B002B0AD14FF0500396
:100D400083F31188BFF36F8FBFF34F8FBB6200BF78
:100D5000FEE7BB68002B03D13B6B1B6C002B01D162
:100D6000012300E00023002B0AD14FF0500383F34E
:100D70001188BFF36F8FBFF34F8F7B6200BFFEE719
:100D80003B68022B03D13B6BDB6B012B01D10123B1
:100D900000E00023002B0AD14FF0500383F31188A9
:100DA000BFF36F8FBFF34F8F3B6200BFFEE701F0D1
:100DB0001DFA0346002B02D17B68002B01D10123D1
:100DC00000E00023002B0AD14FF0500383F3118879
:100DD000BFF36F8FBFF34F8FFB6100BFFEE7FFF7DD
:100DE00001FD3B6B9A6B3B6BDB6B9A4202D33B681A
:100DF000022B29D13A68B968386B00F095FAF8628D
:100E00003B6B5B6A002B10D03B6B2433184601F020
:100E10004FF80346002B13D03F4B4FF080521A601F
:100E2000BFF34F8FBFF36F8F0AE0FB6A002B07D031
:100E3000394B4FF080521A60BFF34F8FBFF36F8F63
:100E4000FFF700FD012363E07B68002B03D1FFF770
:100E5000F9FC00235CE07B6B002B06D107F1140347
:100E6000184601F087F801237B63FFF7EBFC00F0E5
:100E7000D5FDFFF7B7FC3B6B93F844305BB2B3F1A1
:100E8000FF3F03D13B6B002283F844203B6B93F878
:100E900045305BB2B3F1FF3F03D13B6B002283F8D7
:100EA0004520FFF7CFFC3A1D07F114031146184601
:100EB00001F076F80346002B24D1386B00F02CFBB0
:100EC0000346002B18D03B6B10337A681146184646
:100ED00000F09EFF386B00F0B7FA00F0ADFD03465E
:100EE000002B7FF47CAF0C4B4FF080521A60BFF3A5
:100EF0004F8FBFF36F8F72E7386B00F0A5FA00F0E9
:100F00009BFD6CE7386B00F09FFA00F095FD002325
:100F100018463837BD4680BD04ED00E080B58EB080
:100F200000AFF860B9607A603B60FB683B633B6B85
:100F3000002B0AD14FF0500383F31188BFF36F8F5A
:100F4000BFF34F8F7B6200BFFEE7BB68002B03D16E
:100F50003B6B1B6C002B01D1012300E00023002B15
:100F60000AD14FF0500383F31188BFF36F8FBFF3A3
:100F70004F8F3B6200BFFEE73B68022B03D13B6B08
:100F8000DB6B012B01D1012300E00023002B0AD1F0
:100F90004FF0500383F31188BFF36F8FBFF34F8F70
:100FA000FB6100BFFEE7FFF7FFFCEFF311824FF09C
:100FB000500383F31188BFF36F8FBFF34F8FBA6174
:100FC0007B61BB69FB623B6B9A6B3B6BDB6B9A4251
:100FD00002D33B68022B2CD13B6B93F8453087F84A
:100FE0002B303A68B968386B00F09EF997F92B30CE
:100FF000B3F1FF3F12D13B6B5B6A002B16D03B6B0A
:101000002433184600F054FF0346002B0ED07B68B3
:10101000002B0BD07B6801221A6007E097F82B3079
:101020000133DBB25AB23B6B83F8452001237B636B
:1010300001E000237B63FB6A3B613B6983F311881A
:1010400000BF7B6B18463837BD4680BD80B58EB07B
:1010500000AF786039607B683B633B6B002B0AD143
:101060004FF0500383F31188BFF36F8FBFF34F8F9F
:101070003B6200BFFEE73B6B1B6C002B0AD04FF0BE
:10108000500383F31188BFF36F8FBFF34F8FFB6162
:1010900000BFFEE73B6B1B68002B03D13B6B9B68DB
:1010A000002B01D1012300E00023002B0AD14FF0D7
:1010B000500383F31188BFF36F8FBFF34F8FBB6172
:1010C00000BFFEE7FFF770FCEFF311824FF0500313
:1010D00083F31188BFF36F8FBFF34F8F7A613B614A
:1010E0007B69FB623B6B9B6BBB623B6BDB6BBA6AE6
:1010F0009A422BD23B6B93F8453087F82730BB6A76
:101100005A1C3B6B9A6397F92730B3F1FF3F12D11A
:101110003B6B5B6A002B16D03B6B2433184600F008
:10112000C7FE0346002B0ED03B68002B0BD03B685C
:1011300001221A6007E097F827300133DBB25AB278
:101140003B6B83F8452001237B6301E000237B6335
:10115000FB6AFB60FB6883F3118800BF7B6B18465A
:101160003837BD4680BD000080B58CB000AFF86058
:10117000B9607A600023FB62FB68BB62BB6A002B2C
:101180000AD14FF0500383F31188BFF36F8FBFF381
:101190004F8F3B6200BFFEE7BB68002B03D1BB6AE9
:1011A0001B6C002B01D1012300E00023002B0AD18E
:1011B0004FF0500383F31188BFF36F8FBFF34F8F4E
:1011C000FB6100BFFEE701F011F80346002B02D1DE
:1011D0007B68002B01D1012300E00023002B0AD102
:1011E0004FF0500383F31188BFF36F8FBFF34F8F1E
:1011F000BB6100BFFEE7FFF7F5FABB6A9B6B7B6242
:101200007B6A002B1FD0B968B86A00F0F7F87B6AD8
:101210005A1EBB6A9A63BB6A1B69002B0FD0BB6A5C
:101220001033184600F044FE0346002B07D03D4B18
:101230004FF080521A60BFF34F8FBFF36F8FFFF7ED
:1012400001FB012369E07B68002B03D1FFF7FAFA69
:10125000002362E0FB6A002B06D107F11003184659
:1012600000F088FE0123FB62FFF7ECFA00F0D6FBEA
:10127000FFF7B8FABB6A93F844305BB2B3F1FF3FB3
:1012800003D1BB6A002283F84420BB6A93F845303F
:101290005BB2B3F1FF3F03D1BB6A002283F8452064
:1012A000FFF7D0FA3A1D07F110031146184600F077
:1012B00077FE0346002B23D1B86A00F017F90346E6
:1012C000002B17D0BB6A24337A681146184600F009
:1012D0009FFDB86A00F0B8F800F0AEFB0346002BA3
:1012E00089D1104B4FF080521A60BFF34F8FBFF37C
:1012F0006F8F80E7B86A00F0A7F800F09DFB7AE7EF
:10130000B86A00F0A1F800F097FBB86A00F0EEF8B8
:101310000346002B3FF46FAF002318463037BD461D
:1013200080BD00BF04ED00E080B586B000AFF8607E
:10133000B9607A6000237B61FB689B6B3B61FB6853
:101340001B6C002B0DD1FB681B68002B4DD1FB687B
:101350009B68184600F068FF7861FB6800229A607D
:1013600043E07B68002B19D1FB685868FB681B6C55
:101370001A46B96801F0D8FCFB685A68FB681B6C18
:101380001A44FB685A60FB685A68FB689B689A427B
:101390002BD3FB681A68FB685A6026E0FB68D868A4
:1013A000FB681B6C1A46B96801F0BEFCFB68DA6882
:1013B000FB681B6C5B421A44FB68DA60FB68DA6806
:1013C000FB681B689A4207D2FB689A68FB681B6C33
:1013D0005B421A44FB68DA607B68022B05D13B69EB
:1013E000002B02D03B69013B3B613B695A1CFB6807
:1013F0009A637B6918461837BD4680BD80B582B0B8
:1014000000AF786039607B681B6C002B18D07B685C
:10141000DA687B681B6C1A447B68DA607B68DA6880
:101420007B689B689A4203D37B681A687B68DA60A2
:101430007B68D9687B681B6C1A46386801F074FCBD
:1014400000BF0837BD4680BD80B584B000AF78606E
:10145000FFF7C8F97B6893F84530FB7311E07B68B0
:101460005B6A002B12D07B682433184600F020FD05
:101470000346002B01D000F0F5FDFB7B013BDBB206
:10148000FB7397F90F30002BE9DC00E000BF7B68AD
:10149000FF2283F84520FFF7D5F9FFF7A3F97B6812
:1014A00093F84430BB7311E07B681B69002B12D0AA
:1014B0007B681033184600F0FBFC0346002B01D07C
:1014C00000F0D0FDBB7B013BDBB2BB7397F90E3064
:1014D000002BE9DC00E000BF7B68FF2283F844209A
:1014E000FFF7B0F900BF1037BD4680BD80B584B0AE
:1014F00000AF7860FFF776F97B689B6B002B02D119
:101500000123FB6001E00023FB60FFF79BF9FB6810
:1015100018461037BD4680BD80B584B000AF7860F6
:10152000FFF760F97B689A6B7B68DB6B9A4202D1AC
:101530000123FB6001E00023FB60FFF783F9FB68F8
:1015400018461037BD4680BD80B485B000AF7860C6
:1015500039600023FB6014E00F4AFB6852F8333017
:10156000002B0BD10C49FB683A6841F833200A4A3A
:10157000FB68DB0013447A685A6006E0FB680133BD
:10158000FB60FB68072BE7D900BF00BF1437BD46DF
:101590005DF8047B704700BF9451002080B586B091
:1015A00000AFF860B9607A60FB687B61FFF71AF9F9
:1015B0007B6993F844305BB2B3F1FF3F03D17B69A1
:1015C000002283F844207B6993F845305BB2B3F185
:1015D000FF3F03D17B69002283F84520FFF732F9F2
:1015E0007B699B6B002B06D17B6924337A68B968D1
:1015F000184600F031FC7869FFF726FF00BF183766
:10160000BD4680BD80B58CB004AFF860B9603B606A
:101610001346FB80FB889B001846FEF7BDFE7861F1
:101620007B69002B0ED05820FEF7B6FEF861FB69EF
:10163000002B03D0FB697A691A6305E07869FEF72D
:101640003DFF01E00023FB61FB69002B13D0FA880A
:1016500000230393FB690293FB6A0193BB6A009327
:101660003B68B968F86800F00EF8F86900F09CF87B
:101670000123BB6102E04FF0FF33BB61BB69184639
:101680002037BD4680BD80B588B000AFF860B96036
:101690007A603B603B6B186B7B689B001A46A52108
:1016A00001F050FB3B6B1A6B7B6803F18043013BFD
:1016B0009B001344BB61BB6923F00703BB61BB699B
:1016C00003F00703002B0AD04FF0500383F3118877
:1016D000BFF36F8FBFF34F8F7B6100BFFEE7BB6827
:1016E000002B21D00023FB6114E0BA68FB6913448E
:1016F00093F900103A6BFB69134434330A461A70AD
:10170000BA68FB69134493F90030002B06D0FB69DB
:101710000133FB61FB69092BE7D900E000BF3B6B9C
:10172000002283F83D2003E03B6B002283F8342045
:10173000BB6A042B01D90423BB623B6BBA6ADA6231
:101740003B6BBA6A9A643B6B0022DA643B6B0433EE
:101750001846FFF789F93B6B18331846FFF784F9F1
:101760003B6B3A6B1A61BB6AC3F105023B6B9A6132
:101770003B6B3A6B5A623B6B00221A653B6B002253
:1017800083F854203A68F968B869FEF7FBFE024610
:101790003B6B1A60FB6A002B02D0FB6A3A6B1A6043
:1017A00000BF2037BD4680BD80B582B000AF7860F5
:1017B000FFF718F82C4B1B6801332B4A13602B4B97
:1017C0001B68002B09D1294A7B681360264B1B68D4
:1017D000012B10D100F06CFC0DE0254B1B68002B99
:1017E00009D1224B1B68DA6A7B68DB6A9A4202D80D
:1017F0001E4A7B6813601F4B1B6801331D4A136030
:101800001C4B1A687B681A647B68DB6A01229A4069
:10181000194B1B681343184A13607B68DA6A134636
:101820009B0013449B00154A1A447B6804331946F5
:101830001046FFF726F9FFF705F80D4B1B68002B44
:101840000ED00A4B1B68DA6A7B68DB6A9A4207D2C1
:101850000B4B4FF080521A60BFF34F8FBFF36F8F67
:1018600000BF0837BD4680BD1C51002044500020F9
:1018700028510020385100202451002048500020D9
:1018800004ED00E080B58AB000AF786039600023D5
:101890007B627B68002B0AD14FF0500383F31188E1
:1018A000BFF36F8FBFF34F8F7B6100BFFEE73B68D5
:1018B000002B0AD14FF0500383F31188BFF36F8FD1
:1018C000BFF34F8F3B6100BFFEE72A4B1B68002B25
:1018D0000AD04FF0500383F31188BFF36F8FBFF32B
:1018E0004F8FFB6000BFFEE700F098F8224B1B68AB
:1018F0003B627B681B683A681344FB617B681B682A
:101900003A6A9A420BD27B681B68FA699A4211D2F2
:10191000FA693B6A9A420DD901237B620AE07B682F
:101920001B68FA699A4203D3FA693B6A9A4201D961
:1019300001237B627B68FA691A607B6A002B06D000
:10194000FA693B6AD31A0021184600F0F3FC00F054
:1019500073F8B861BB69002B07D1084B4FF0805278
:101960001A60BFF34F8FBFF36F8F00BF2837BD469C
:1019700080BD00BF445100202051002004ED00E054
:1019800080B586B002AF1F4B019300230093002364
:1019900082221D491D48FFF735FEF860FB68012BC8
:1019A00002D100F02DFDF860FB68012B16D14FF03D
:1019B000500383F31188BFF36F8FBFF34F8FBB606A
:1019C00000BF134B4FF0FF321A60124B01221A6016
:1019D000114B00221A60FEF763FE0EE0FB68B3F1C4
:1019E000FF3F0AD14FF0500383F31188BFF36F8F8D
:1019F000BFF34F8F7B6000BFFEE700BF1037BD46CF
:101A000080BD00BF405100206C2D00087D200008E3
:101A10003C510020285100202051002080B400AF0C
:101A2000044B1B680133034A136000BFBD465DF8D9
:101A3000047B70474451002080B584B000AF002380
:101A4000FB600023BB60414B1B68002B0AD14FF0A9
:101A5000500383F31188BFF36F8FBFF34F8F3B6049
:101A600000BFFEE7FEF7BEFE384B1B68013B374A5E
:101A70001360364B1B68002B61D1354B1B68002B64
:101A80005DD02EE0334BDB68DB68FB60FB6818330E
:101A90001846FFF753F8FB6804331846FFF74EF873
:101AA000FB68DB6A01229A402B4B1B6813432A4ACE
:101AB0001360FB68DA6A13469B0013449B00274AB5
:101AC0001A44FB68043319461046FEF7DAFFFB6838
:101AD000DA6A234B1B68DB6A9A4202D3214B01224C
:101AE0001A601C4B1B68002BCCD1FB68002B01D06B
:101AF00000F05CFB1C4B1B687B607B68002B10D0EC
:101B000000F046F80346002B02D0164B01221A6063
:101B10007B68013B7B607B68002BF1D1124B00227C
:101B20001A60104B1B68002B09D00123BB600F4BC0
:101B30004FF080521A60BFF34F8FBFF36F8FFEF7E5
:101B400081FEBB6818461037BD4680BD4451002059
:101B50001C510020DC50002024510020485000205F
:101B600044500020305100202C51002004ED00E0B2
:101B700080B483B000AF054B1B687B607B68184660
:101B80000C37BD465DF8047B704700BF2051002034
:101B900080B586B000AF00237B61524B1B68002BE1
:101BA00040F08E80504B1B6801333B614E4A3B69CD
:101BB00013603B69002B20D14C4B1B681B68002B2A
:101BC0000AD04FF0500383F31188BFF36F8FBFF338
:101BD0004F8F3B6000BFFEE7444B1B68FB60444BEC
:101BE0001B68424A1360424AFB681360414B1B6802
:101BF0000133404A136000F0D9FA3F4B1B683A6941
:101C00009A4248D3394B1B681B68002B04D13A4BCE
:101C10004FF0FF321A603EE0344B1B68DB68DB6834
:101C2000BB60BB685B687B603A697B689A4203D2A1
:101C3000314A7B6813602EE0BB6804331846FEF718
:101C40007DFFBB689B6A002B04D0BB681833184625
:101C5000FEF774FFBB68DB6A01229A40274B1B68C2
:101C60001343264A1360BB68DA6A13469B00134489
:101C70009B00234A1A44BB68043319461046FEF7FA
:101C800000FFBB68DA6A1F4B1B68DB6A9A42B9D354
:101C900001237B61B6E71B4B1B68DA6A18491346C0
:101CA0009B0013449B000B441B68012B01D90123AB
:101CB0007B61154B1B68002B09D100F06BFF06E020
:101CC000114B1B680133104A136000F063FF0F4B88
:101CD0001B68002B01D001237B617B6918461837F4
:101CE000BD4680BD4451002020510020D45000202A
:101CF000D8500020345100203C51002024510020B5
:101D000048500020445000202C5100203051002029
:101D100080B588B000AF394B1B68002B03D0384B1F
:101D200001221A6066E0364B00221A60354B1B68B0
:101D30001B6BFB614FF0A533BB61FB691B68BA6984
:101D40009A4211D1FB6904331B68BA699A420BD1DC
:101D5000FB6908331B68BA699A4205D1FB690C33E9
:101D60001B68BA699A4208D0264B1A68254B1B6833
:101D700034331946104600F088FF234B1B68FB6084
:101D8000FB68B3FA83F3FB72FB7AC3F11F037B6139
:101D90001E497A6913469B0013449B000B441B6841
:101DA000002B0AD14FF0500383F31188BFF36F8FDC
:101DB000BFF34F8F7B6000BFFEE77A6913469B003D
:101DC00013449B00114A13443B613B695B685A68AA
:101DD0003B695A603B695A683B6908339A4204D1AF
:101DE0003B695B685A683B695A603B695B68DB68C2
:101DF000044A136000BF2037BD4680BD4451002017
:101E00003051002044500020245100204850002030
:101E100080B584B000AF786039607B68002B0AD150
:101E20004FF0500383F31188BFF36F8FBFF34F8FD1
:101E3000FB6000BFFEE7074B1B6818331946786844
:101E4000FEF743FE0121386800F074FA00BF103736
:101E5000BD4680BD4450002080B586B000AFF8601C
:101E6000B9607A60FB68002B0AD14FF0500383F30E
:101E70001188BFF36F8FBFF34F8F7B6100BFFEE709
:101E80000A4B1B6818331946F868FEF7FAFD7B68A1
:101E9000002B02D04FF0FF33BB607968B86800F0C8
:101EA00049FA00BF1837BD4680BD00BF445000202E
:101EB00080B586B000AF78607B68DB68DB683B612B
:101EC0003B69002B0AD14FF0500383F31188BFF315
:101ED0006F8FBFF34F8FFB6000BFFEE73B69183386
:101EE0001846FEF72BFE1D4B1B68002B1CD13B69CF
:101EF00004331846FEF722FE3B69DB6A01229A4052
:101F0000174B1B681343164A13603B69DA6A134682
:101F10009B0013449B00134A1A443B69043319463F
:101F20001046FEF7AEFD05E03B69183319460E4832
:101F3000FEF7A7FD3B69DA6A0C4B1B68DB6A9A4225
:101F400005D901237B610A4B01221A6001E00023BD
:101F50007B617B6918461837BD4680BD445100201F
:101F60002451002048500020DC5000204450002024
:101F70003051002080B483B000AF7860064B1A68FF
:101F80007B681A60054B1A687B685A6000BF0C3783
:101F9000BD465DF8047B704734510020205100207D
:101FA00080B588B000AF786039607B68002B0AD1BB
:101FB0004FF0500383F31188BFF36F8FBFF34F8F40
:101FC0003B6100BFFEE73B68002B0AD14FF0500396
:101FD00083F31188BFF36F8FBFF34F8FFB6000BF98
:101FE000FEE7FEF7FFFB1D4B1B68BB617B685B6870
:101FF000BA69D31A7B613B681B68B3F1FF3F02D11A
:102000000023FB6123E07B681A68154B1B689A422A
:1020100007D07B685B68BA699A4202D30123FB61EF
:1020200015E03B681B687A699A420BD23B681A68D4
:102030007B69D21A3B681A607868FFF79BFF002320
:10204000FB6104E03B6800221A600123FB61FEF79C
:10205000F9FBFB6918462037BD4680BD20510020A2
:102060003451002080B400AF034B01221A6000BF3E
:10207000BD465DF8047B70473051002080B582B0CA
:1020800000AF786000F054F8074B1B68012B07D9AC
:10209000064B4FF080521A60BFF34F8FBFF36F8F24
:1020A00000F0ECFDEEE700BF4850002004ED00E03A
:1020B00080B582B000AF00237B600CE07A681346E5
:1020C0009B0013449B00124A13441846FEF7ACFCD5
:1020D0007B6801337B607B68042BEFD90D48FEF7EA
:1020E000A3FC0D48FEF7A0FC0C48FEF79DFC0C4835
:1020F000FEF79AFC0B48FEF797FC0B4B054A1A605B
:102100000A4B054A1A6000BF0837BD4680BD00BFB4
:1021100048500020AC500020C0500020DC5000206F
:10212000F050002008510020D4500020D85000204A
:1021300080B582B000AF19E0FEF754FB104BDB68AE
:10214000DB687B607B6804331846FEF7F7FC0D4BB9
:102150001B68013B0B4A13600B4B1B68013B0A4A8F
:102160001360FEF76FFB786800F010F8064B1B68F1
:10217000002BE1D100BF00BF0837BD4680BD00BFC6
:10218000F05000201C5100200451002080B582B086
:1021900000AF78607B681B6B1846FEF78FF9786894
:1021A000FEF78CF900BF0837BD4680BD80B483B010
:1021B00000AF0C4B1B681B68002B04D10A4B4FF07F
:1021C000FF321A6008E0074B1B68DB68DB687B6046
:1021D0007B685B68044A136000BF0C37BD465DF83E
:1021E000047B7047D45000203C51002080B483B061
:1021F00000AF0B4B1B68002B02D101237B6008E072
:10220000084B1B68002B02D102237B6001E00023F6
:102210007B607B6818460C37BD465DF8047B7047D1
:10222000285100204451002080B586B000AF78606E
:102230007B683B6100237B617B68002B6ED03A4B4F
:102240001B683A699A420AD04FF0500383F3118811
:10225000BFF36F8FBFF34F8FFB6000BFFEE73B699B
:10226000DB6C002B0AD14FF0500383F31188BFF3CE
:102270006F8FBFF34F8FBB6000BFFEE73B69DB6C26
:102280005A1E3B69DA643B69DA6A3B699B6C9A4285
:1022900044D03B69DB6C002B40D13B6904331846CA
:1022A000FEF74CFC0346002B15D13B69DA6A1F4947
:1022B00013469B0013449B000B441B68002B0AD160
:1022C0003B69DB6A012202FA03F3DA43184B1B680D
:1022D0001340174A13603B699A6C3B69DA623B69A9
:1022E000DB6AC3F105023B699A613B69DB6A012243
:1022F0009A400F4B1B6813430D4A13603B69DA6A1F
:1023000013469B0013449B00084A1A443B6904335C
:1023100019461046FEF7B5FB01237B617B69184621
:102320001837BD4680BD00BF4450002048500020F3
:102330002451002080B584B000AF78603960294B0B
:102340001B68FB60284B1B6804331846FEF7F6FB3E
:102350000346002B0BD1244B1B68DB6A012202FAD7
:1023600003F3DA43214B1B681340204A13607B6858
:10237000B3F1FF3F0AD13B68002B07D01A4B1B6813
:10238000043319461A48FEF77CFB26E0FA687B689E
:102390001344BB60144B1B68BA685A60BA68FB6888
:1023A0009A4209D2134B1A680F4B1B680433194623
:1023B0001046FEF78AFB10E00F4B1A680A4B1B68A9
:1023C000043319461046FEF780FB0C4B1B68BA68B5
:1023D0009A4202D2094ABB68136000BF1037BD465B
:1023E00080BD00BF20510020445000202451002017
:1023F00008510020D8500020D45000203C5100202B
:1024000080B584B002AF00237B6000F0D5FA114B99
:102410001B68002B0BD0104B019302230093002369
:102420004FF482720D490E48FFF7ECF878607B6834
:10243000002B0AD14FF0500383F31188BFF36F8F45
:10244000BFF34F8F3B6000BFFEE77B68184608373D
:10245000BD4680BD785100207C510020742D0008BD
:102460009925000880B58AB000AFF860B9607A603D
:102470003B6000237B62FB68002B0AD14FF05003C6
:1024800083F31188BFF36F8FBFF34F8F3B6200BFA1
:10249000FEE71A4B1B68002B2AD0BB687B617B6868
:1024A000BB61FB68FB61BB68052B18DCFFF79EFE78
:1024B0000346022B09D1114B186807F114010023C0
:1024C0003A6BFEF72DFC786212E00C4B186807F1AE
:1024D000140100230022FEF723FC786208E0074B7A
:1024E000186807F1140100233A68FEF717FD7862B7
:1024F0007B6A18462837BD4680BD00BF7851002052
:1025000080B588B002AF78603960224B1B68DB6809
:10251000DB687B617B6904331846FEF70FFB7B6940
:1025200093F8283003F00403002B22D07B699A69CA
:102530007B68D1187B683A68786900F0D1F8034667
:10254000002B1FD00023009300237A6800217869B4
:10255000FFF788FF38613B69002B13D14FF0500320
:1025600083F31188BFF36F8FBFF34F8FFB6000BF02
:10257000FEE77B6993F8283023F00103DAB27B6928
:1025800083F828207B691B6A7869984700BF183751
:10259000BD4680BD7051002080B584B000AF78602A
:1025A00007F10803184600F057F8F860BB681946B1
:1025B000F86800F003F800F0D5F8F1E780B584B0D2
:1025C00000AF78603960FFF729FA07F10803184671
:1025D00000F066F8F860BB68002B30D13B68002B38
:1025E0000AD17A68FB689A4206D8FFF725FAF9689B
:1025F0007868FFF785FF24E03B68002B08D0134B79
:102600001B681B68002B01D1012300E000233B6005
:102610000F4B18687A68FB68D31A3A681946FEF7B8
:10262000BDFFFFF709FA0346002B0AD1094B4FF013
:1026300080521A60BFF34F8FBFF36F8F01E0FFF737
:10264000FBF900BF1037BD4680BD00BF74510020AC
:102650007851002004ED00E080B485B000AF7860D0
:102660000E4B1B681B68002B01D1012200E00022E9
:102670007B681A607B681B68002B05D1074B1B68C1
:10268000DB681B68FB6001E00023FB60FB68184609
:102690001437BD465DF8047B704700BF70510020C1
:1026A00080B584B000AF7860FFF762FAF8600B4B3A
:1026B0001B68FA689A4205D200F01AF97B68012279
:1026C0001A6002E07B6800221A60044AFB6813600B
:1026D000FB6818461037BD4680BD00BF8051002002
:1026E00080B586B000AFF860B9607A603B600023C7
:1026F0007B61FB68BA685A60FB68FA681A61BA685D
:102700007B689A4212D87A683B68D21AFB689B6948
:102710009A4202D301237B611BE0104B1A68FB68CD
:10272000043319461046FEF7D0F912E07A683B6888
:102730009A4206D2BA683B689A4202D301237B616F
:1027400007E0074B1A68FB68043319461046FEF78A
:10275000BCF97B6918461837BD4680BD745100200E
:102760007051002080B58CB002AFAEE0BB68002B8A
:10277000C0F2AA803B697B627B6A5B69002B04D054
:102780007B6A04331846FEF7D9F93B1D1846FFF75C
:1027900087FF3862BB68092B00F2978001A252F8CC
:1027A00023F000BFCD270008CD270008CD27000863
:1027B00041280008552800089F280008CD27000858
:1027C000CD27000841280008552800087B6A93F8A7
:1027D000283043F00103DAB27B6A83F82820FA68D4
:1027E0007B6A9B69D118FB683A6A786AFFF778FFC1
:1027F0000346002B69D07B6A1B6A786A98477B6A1C
:1028000093F8283003F00403002B5ED0FA687B6A4B
:102810009B691A440023009300230021786AFFF784
:1028200021FEF861FB69002B4FD14FF0500383F379
:102830001188BFF36F8FBFF34F8FBB6100BFFEE7FF
:102840007B6A93F8283023F00103DAB27B6A83F8BD
:1028500028203AE07B6A93F8283043F00103DAB28B
:102860007B6A83F82820FA687B6A9A617B6A9B6995
:10287000002B0AD14FF0500383F31188BFF36F8F01
:10288000BFF34F8F7B6100BFFEE77B6A9A693B6AAB
:10289000D1183B6A3A6A786AFFF722FF15E07B6A33
:1028A00093F8283003F00203002B03D1786AFDF778
:1028B00005FE0AE07B6A93F8283023F00103DAB2C0
:1028C0007B6A83F8282000E000BF084B1B6807F1F3
:1028D000080100221846FEF747FC0346002B7FF450
:1028E00045AF00BF00BF2837BD4680BD78510020EE
:1028F00080B588B002AF48E02D4B1B68DB681B68D1
:102900003B612B4B1B68DB68DB68FB60FB680433B7
:102910001846FEF713F9FB681B6AF8689847FB68CE
:1029200093F8283003F00403002B2ED0FB689B693A
:102930003A691344BB60BA683B699A420ED9FB6896
:10294000BA685A60FB68FA681A61194B1A68FB6822
:10295000043319461046FEF7B8F816E0002300933A
:1029600000233A690021F868FFF77CFD78607B68F6
:10297000002B0AD14FF0500383F31188BFF36F8F00
:10298000BFF34F8F3B6000BFFEE7094B1B681B681E
:10299000002BB1D1064B1B687B61064B1B68044AB8
:1029A0001360044A7B69136000BF1837BD4680BDC1
:1029B000705100207451002080B500AFFDF712FF68
:1029C000124B1B68002B1DD11148FEF72DF8114842
:1029D000FEF72AF8104B0E4A1A60104B0D4A1A6087
:1029E00000220C210A20FEF73BF90346074A136038
:1029F000064B1B68002B05D0044B1B680849184682
:102A0000FEF7A2FDFDF71EFF00BF80BD785100203C
:102A1000485100205C51002070510020745100206A
:102A20007C2D000880B483B000AF7860064A7B68D4
:102A300043F0BF6343F40033D36000BF0C37BD469F
:102A40005DF8047B704700BF00ED00E080B483B008
:102A500000AF7860044A7B68536100BF0C37BD4605
:102A60005DF8047B704700BF003C014080B586B034
:102A700002AF78600023FB600CE0002301937B68C9
:102A800000930023822207490748FEF7BBFDFB683D
:102A90000133FB60FB68022BEFDD00BF00BF103786
:102AA000BD4680BD842D0008AD2A000880B586B0E3
:102AB00000AF7860FDF796FE154B1B687B61144BE9
:102AC0001B680133124A1360FDF7BCFE7B690133BA
:102AD00040F24D1202FB03F33B613B695B083B6133
:102AE000FFF746F80346FB6007F10C033969184607
:102AF000FEF7C8FE786900F00DF807F10C0339699C
:102B00001846FEF7BFFE786900F004F8ECE700BF56
:102B10008451002080B582B000AF78607B68032BC1
:102B200003D8FDF75FFEFDF78DFE00BF0837BD46F9
:102B300080BD000080B483B000AF0346FB71FB7919
:102B400003F01F02074997F907305B09012000FADB
:102B500002F2403341F8232000BF0C37BD465DF838
:102B6000047B704700E100E080B500AF00F008F89A
:102B70000120FFF77BFF00F049F8FEF701FFFEE7B9
:102B800080B500AFFDF756FB4FF44070FFF74AFFEA
:102B900000BF80BD80B400AF00BFBD465DF8047BC0
:102BA0007047000080B400AF0C4B1B6801330B4A28
:102BB00013600A4B1A680A4B1B689A4203D9074BE9
:102BC0001B68074A1360054B1B68013B034A1360EF
:102BD00000BFBD465DF8047B704700BF88510020F0
:102BE0008C51002080B500AF074B1B680133064AAB
:102BF00013601D20FFF79EFF034B1B68013B024A39
:102C0000136000BF80BD00BF8851002080B400AFBA
:102C100000BFBD465DF8047B7047000080B582B000
:102C200000AF00237B604020FFF710FF0A4B1B68BA
:102C30003A1D11461846FEF709FA7B68002B07D0AB
:102C4000064B4FF080521A60BFF34F8FBFF36F8F68
:102C500000BF0837BD4680BD9051002004ED00E064
:102C600080B483B000AF4FF0500383F31188BFF3FB
:102C70006F8FBFF34F8F7B6000BFFEE780B400AF64
:102C800000BFBD465DF8047B704780B485B000AFDF
:102C9000786039604FF0500383F31188BFF36F8F72
:102CA000BFF34F8FFB6000BFFEE780B400AF00BFF3
:102CB000BD465DF8047B704780B400AFFEE780B48A
:102CC00000AFFEE780B400AFFEE780B400AFFEE7E0
:102CD00080B400AF00BFBD465DF8047B70470000C4
:102CE00070B50D4D0D4C641BA4100026A64209D1F1
:102CF0000B4D0C4C00F02EF8641BA4100026A642CD
:102D000005D170BD55F8043B98470136EEE755F8FC
:102D1000043B98470136F2E78C2D00088C2D000803
:102D20008C2D0008902D00080A44914200F1FF33D9
:102D300000D1704710B511F8014B03F8014F9142D3
:102D4000F9D110BD02440346934200D1704703F805
:102D5000011BF9E7F8B500BFF8BC08BC9E467047F8
:0C2D6000F8B500BFF8BC08BC9E467047E8
:102D6C0049444C4500000000546D722053766300BA
:102D7C00546D7251000000004C4544780000000076
:042D8C00C501000875
:042D9000A101000895
:0C2D940080D1F008F84F0000AAAAAAAAFB
:04000005080001E10D
:00000001FF
